{
  "contractName": "SampleContract",
  "abi": [
    {
      "constant": true,
      "inputs": [],
      "name": "value",
      "outputs": [
        {
          "name": "",
          "type": "uint256"
        }
      ],
      "payable": false,
      "stateMutability": "view",
      "type": "function"
    },
    {
      "constant": false,
      "inputs": [
        {
          "name": "value_",
          "type": "uint256"
        }
      ],
      "name": "setValue",
      "outputs": [],
      "payable": false,
      "stateMutability": "nonpayable",
      "type": "function"
    }
  ],
  "bytecode": "0x6060604052341561000f57600080fd5b60d08061001d6000396000f3006060604052600436106049576000357c0100000000000000000000000000000000000000000000000000000000900463ffffffff1680633fa4f24514604e57806355241077146074575b600080fd5b3415605857600080fd5b605e6094565b6040518082815260200191505060405180910390f35b3415607e57600080fd5b60926004808035906020019091905050609a565b005b60005481565b80600081905550505600a165627a7a723058203638e24994ff1c23220346acbcce7679eff42a257c20edb5c63bf0b81cd0da390029",
  "source": "pragma solidity ^0.4.17;\n\ncontract SampleContract {\n  // This value is visible in etherscan.io explorer\n  uint public value;\n  // Anyone can call this contract and override the value of the previous caller\n  function setValue(uint value_) public {\n      value = value_;\n  }\n}",
  "sourcePath": "/Users/yuanyu90221/SampleContract/contracts/SampleContract.sol",
  "compiler": {
    "name": "solc",
    "version": "0.4.18+commit.9cf6e910.Emscripten.clang"
  },
  "schemaVersion": "1.0.1",
  "updatedAt": "2018-03-05T07:31:40.372Z"
}